:1000680060E070E021E030E0EDE3F1E00E94B106ED
:10007800109139011F9310913A010F9101171FEF49
:1000880008F0112710934601109139011395109328
:100098003901109139011A3010E008F01FEF1123CF
:1000A80011F40C945A0010E010933901089510EFE0
:1000B8001AB918E01BB91DE214B914E115B9109169
:1000C8007C00106410937C00089500914801109101
:1000D800490120914A0130914B01009510953095C6
:1000E80020950E9476052A9A00002A98089522975A
:1000F8000A811B81D8012CE330E0689445F80E94FE
:100108000807102F19830A811B81D8012CE330E0DE
:10011800689445F80E9408078F01507821F00195EE
:1001280009F41A951095102F1883E6E0F0E1EF9383
:10013800FF931981012F1127FF91EF91E00FF11F14
:100148001491146010934901E6E0F0E1EF93FF93F6
:1001580018810AE00E94D706012F1127FF91EF911D
:10016800E00FF11F149110934A01E6E0F0E1EF93DC
:10017800FF9318810AE00E94D706102F012F11273C
:10018800FF91EF91E00FF11F149110934B010E9422
:10019800690008950E945B0010E8412A78941FEFD7
:1001A8000E946D0510E00E944305CF93DF9317E08E
:1001B80000ED1A930A9314E11A930E942906DF911D
:1001C800CF9110E00E944B0511274B991FEF109318
:1001D800450110E01093470110914701103011F0CC
:1001E8000C94B50111E00E94DA071695079516954B
:1001F800079500933F0110934001CF93DF9300913F
:100208003F01109140011A930A9310E000E51A93F8
:100218000A9310E00FEF1A930A931FEF0E948E06BD
:10022800DF91CF91025E1F4F00934101109342016D
:10023800CF93DF9300913F01109140011A930A93E5
:1002480010E000EA1A930A9310E00FEF1A930A934A
:100258001FEF0E948E06DF91CF91025E1F4F009321
:1002680043011093440112E00E94DA07169507959E
:100278001695079500933B0110933C01CF93DF93AC
:1002880000913B0110913C01102F1A931AE01A9328
:100298001FEF1A930E948006DF91CF9110933A01C5
:1002A8005C985D985E9811274B991FEF1095112364
:1002B80011F40C949D0110914501112311F40C9433
:1002C8007401009141011091420100933D01109386
:1002D8003E010E94D90511E0109347010C949B013F
:1002E800109139011170103010E009F41FEF11233B
:1002F80011F40C948D0100E011EF20EA30EA00932C
:1003080048011093490120934A0130934B010C9402
:10031800990100E010E02BEC33EB009348011093B7
:10032800490120934A0130934B010E9469000C94C3
:10033800B301CF93DF9300914301109144010F93D0
:100348001F9300914101109142013F912F91020F9B
:10035800131F1A930A930E947B00DF91CF910C948C
:10036800A403113011F00C94F7015C985D9A5E9A21
:1003780010E00E945C0510E00E944305CF93DF93D4
:1003880000913D0110913E011A930A930E947B004F
:10039800DF91CF9111274B991FEF112311F40C9482
:1003A800DA0117E0109347010C94F50100913D0123
:1003B80010913E01A0E81A27103809F4003010E027
:1003C80009F41FEF112311F40C94F5010E94B305F1
:1003D80010E00AE000933D0110933E0112E01093F3
:1003E80047010C94A403123011F00C944D025C9850
:1003F8005D9810914601E894112309F068941BB1A7
:1004080016F91BB910E00E944B05CF93DF930091BA
:100418003D0110913E011A930A930E947B00DF91DF
:10042800CF9111274B991FEF112311F40C9421023E
:1004380017E0109347010C944B0200913D01109175
:100448003E01A0E81A27103809F4003010E009F43A
:100458001FEF112311F40C944B02CF93DF9317E095
:1004680000ED1A930A931AE01A930E942906DF9165
:10047800CF91009143011091440100933D011093E5
:100488003E0110E01093390113E0109347010C94DA
:10049800A403133011F00C94BA025C981091460131
:1004A800E894112309F068941BB115F91BB95E9AF9
:1004B800CF93DF9310E01A93109146011A930E948C
:1004C8003E05DF91CF91CF93DF9300913D011091CD
:1004D8003E011A930A930E947B00DF91CF91112766
:1004E8004B991FEF112311F40C949102CF93DF93D2
:1004F80017E000ED1A930A931AE01A930E9429064E
:10050800DF91CF9110E00FE000933D0110933E0181
:1005180014E0109347010C94B80200913D0110912A
:100528003E01A0E81A27103809F4003010E009F459
:100538001FEF112311F40C94B80210E005E00093AA
:100548003D0110933E0100E011EF28EA3AEE0093D6
:1005580048011093490120934A0130934B010E94AE
:10056800690016E0109347010C94A403163011F0AB
:100578000C94FE025C9810914601E894112309F04E
:1005880068941BB115F91BB95E9811274B991FEF99
:10059800112311F40C94DB0210E00FE000933D01ED
:1005A80010933E0114E0109347010C94FC02009153
:1005B8003D0110913E01A0E81A27103809F40030D7
:1005C80010E011F008F01FEF112311F40C94FC0255
:1005D800CF93DF9315E01A930E941406DF91CF9111
:1005E800CF93DF9315E01A930E94FF05DF91CF9117
:1005F8000C94A403143011F00C9435035C985D98A6
:100608005E9811274B991FEF1095112311F40C9444
:100618001A030E94B3050091410110914201009311
:100628003D0110933E0113E01093470100913D01F5
:1006380010913E01A0E81A27103809F4003010E0A4
:1006480009F41FEF112311F40C94330310E00CE3A9
:1006580000933D0110933E0115E0109347010C945F
:10066800A403153011F00C947A035C9A5D985E9897
:10067800CF93DF9300913D0110913E011A930A93A5
:100688000E947B00DF91CF9111274B991FEF1095A6
:10069800112311F40C945D030E94B30500914101EC
:1006A8001091420100933D0110933E0113E0109315
:1006B800470100913D0110913E01A0E81A2710382A
:1006C80009F4003010E009F41FEF112311F40C9421
:1006D8007803CF93DF931FE01A930E941406DF91EB
:1006E800CF9110E0109347010C94A403173011F038
:1006F8000C94A4035D985E9800E011EF20EA30EABC
:10070800009348011093490120934A0130934B010B
:100718000E946900CF93DF9311E01A9313E01A93B4
:100728000E948005DF91CF9110E00E94540513E0EC
:1007380008EE0E94A20610E0109347010C94A4034F
:1007480011274B991FEF1093450110E002E30E9417
:10075800A2060C94F0000000FECFF89411E00FEA16
:100768001EBF0DBF1127E0E1F0E0A0E0B0E0319638
:100778000000319711F01D93FCCFA0E0B1E0E0E05C
:10078800F8E031960000319711F01D93FCCFC3E1DA
:10079800D2E0F8941FE7412214E61093000116BD39
:1007A80015E015BD11E010936E0010E010937C0069
:1007B80016EC10937A0018E11093C10010E1109321
:1007C800C40010E01093C50010E0109301011093CD
:1007D8000201109303011091C10010681093C10029
:1007E80010E010931401109315011093160116E0F0
:1007F8001093C2001091C6001AE0109333011093B1
:100808003401109335012A9A259A239A2498229A1A
:100818001DE51CBD00000000000000000DB50EB570
:10082800442455240C94CE00EF93FF930F931F9309
:100838001FB71F931091000106B5100F16BD1FE7D3
:1008480041220091780010917900AF93BF93F09105
:100858007C00F770E0E0EF1771F4A0912701B091E8
:1008680028010A0F1B1F169507950093270110935F
:100878002801E1E00CC0A0912901B0912A010A0FDA
:100888001B1F169507950093290110932A011091B3
:100898002B01117031F4F0917C00F87FEF2BE0937D
:1008A8007C00BF91AF91AF93BF93ECE2F1E0A081E0
:1008B800B1811196A083B183A13751F4B23041F4CC
:1008C800A281B3811197A283B38311271083118367
:1008D800A281B381119604E610E0A017B10738F0A1
:1008E800A01BB11BA283B383BF91AF9105C0A283A4
:1008F800B383BF91AF9124C02F932227E0E3F1E0A7
:100908001081018113951C3308F412C010E003957F
:100918001193216011810C3368F000E01395019365
:1009280022600181183120F010E00395119303C073
:10093800108301C000832F930E9434002F912F91C0
:10094800772009F07A94E3E3F1E01191112321F083
:1009580011811A95118309F014C010811183148133
:10096800109514830281102303811027E09125003C
:1009780001E010FF02C0E02B02C00095E023E093E5
:10098800250010E8412A10917A00106410937A002B
:100998001F911FBF1F910F91FF91EF911895EF9332
:1009A800FF930F931F931FB71F93109116011123E5
:1009B80031F41091C1001F7D1093C1001BC000913C
:1009C80015011127E7E1F1E0E00FF11F1081109305
:1009D800C600109116011A951093160129F410916A
:1009E800C1001F7D1093C1000395003109F4002751
:1009F800009315011F911FBF1F910F91FF91EF9158
:100A08001895EF93FF930F931F931FB71F931091A0
:100A18000301103119F40091C6001BC01091C600E3
:100A28001F93112700910101E4E0F1E0E00FF11FAD
:100A38001F911083109103011395109303010395DF
:100A4800003109F40027009301010091C00007FD5F
:100A5800DECF1F911FBF1F910F91FF91EF91189546
:100A680000E0183018F01F911F910895001F1A9583
:100A7800EAF7089519810881002309F408C00E9443
:100A8800340510913701102B1093370108950E94F7
:100A980034051091370100951023109337010895FC
:100AA8000E94340510913601102B109336010895D9
:100AB8000E943405F8940095109136011023109384
:100AC80036011091380110231093380147FC7894AF
:100AD80008951093330108951EBD1DB517FFFDCF6E
:100AE8001EB508951F93102FF7DF1F91F5DF122F02
:100AF800F3DF132FF1DF0895579AE981E170E98355
:100B0800EE2718E00DEE1A930A9316950695A8811C
:100B1800B9815F9A00001197E9F7A881B9815F98B8
:100B280000001197E9F7A881B981EE2361F41897BD
:100B3800B983A8830A171B0752F3EA81EE2349F009
:100B4800000F110FE4CF1896B983A8830A171B0763
:100B5800F2F62296E881EA95E8837AF608952397D3
:100B680019E000E61A83098318E018836ED018E0AC
:100B780004E31A83098318E0188367D017E008E0B4
:100B88001A83098318E0188360D015E00CED1A83E6
:100B9800098318E0188359D014E000EB1A830983FD
:100BA80018E0188352D023960895239714E000EB99
:100BB8001A83098318E0188348D015E00CED1A83CE
:100BC800098318E0188341D017E008E01A830983E5
:100BD80018E018833AD018E004E31A83098318E070
:100BE800188333D019E000E61A83098318E01883C4
:100BF8002CD023960895239717E000ED1A830983D4
:100C080015E0188322D013E008EE1A83098315E053
:100C180018831BD01B811A951B8371F7239608959F
:100C2800239716E000E41A83098315E018830DD092
:100C380013E000E21A83098315E0188306D01B81AC
:100C48001A951B8371F723960895579AE89445F8E7
:100C5800A981BA81E8E2F0E0EA17FB0742F0AA238B
:100C680021F478807720F1F70895A8E2B0E0E0E178
:100C7800F7E2EA17FB0712F4A0E1B7E2EE27FF2735
:100C880040E05AE668E170E00E9441071A83098350
:100C98007880A981BA815F9A00001197E9F7A98144
:100CA800BA815F9800001197E9F7772091F70895C6
:100CB8001091300108951C3308F010E0F894ECE22C
:100CC800F1E0148310E0119311931193119347FCF1
:100CD800789408951091310108951C3308F010E0BC
:100CE800109331010895109132010895183108F0D8
:100CF80010E01093320108951A8109810E94CD06EF
:100D0800B02FA12F288130E0E89445F80E94080709
:100D1800102F0895112319F4E89445F802C0689437
:100D280045F80C811D81AA81BB810E94E606A801B5
:100D3800BF01A881B9810E9489070895A8011127D8
:100D48004117510749F00AE71CE001501040000024
:100D5800E1F741505040B9F708951127A081B181BA
:100D6800A21BB30B53F000E8B02770276A177B0764
:100D7800B027702710F41FEF02C0A62FB72FB1833A
:100D8800A08308952150304018F011911D93FACF97
:100D98000895109F102D012D08953F912F91012F37
:100DA8001F912F933F93332729E0111F2A9511F4A0
:100DB800032F0895331F301B18F4300F8894F5CF94
:100DC8000894F3CF9801442745FA86F4BD01370209
:100DD800F001269F80013603F40B100DE11DF41F6E
:100DE8007203F40B100DE11DF41F08953B9FF001F1
:100DF8002A9F80013A9F100DE11DF41F2B9F100DB3
:100E0800E11DF41F08959801552745FA96F45B2FC4
:100E1800432F4B27E89447FF45F837FF04C0219537
:100E280009F43A953095B7FF04C0A19509F4BA952D
:100E3800B095EE27FF1B11E1AA1FBB1F1A9541F4BD
:100E48008D0145FA26F4019509F41A95109508952F
:100E5800EE1FFF1FE21BF30B20F4E20FF31F889431
:100E6800EBCF0894E9CFD801F9011F910F917F9139
:100E78006F915F914F910F931F93112745FAD6F405
:100E8800172F8F2F8727E89487FF45F8F7FF08C0AB
:100E9800A095B095E095F095AF5FBF4FEF4FFF4F2E
:100EA80077FF08C040955095609570954F5F5F4FEC
:100EB8006F4F7F4F1F93882799270024112411E231
:100EC800441F551F661F771F1A9571F48A019B01ED
:100ED80045FA46F4015010402040304020953095A6
:100EE800109500955F910895881F991F001C111C8B
:100EF8008A1B9B0B0E0A1F0A30F48A0F9B1F0E1EBB
:100F08001F1E8894DDCF0894DBCF45FA1EF0E0E081
:100F1800F0E021C0BB231AF4EFEFFFEF02C0E0E0DE
:100F2800F0E0172F8F2F8727E89487FF45F8F7FF02
:100F380008C0A095B095E095F095AF5FBF4FEF4F13
:100F4800FF4F77FF08C040955095609570954F5FAB
:100F58005F4F6F4F7F4F1F938827992700240027E3
:100F680011E2441F551F661F771F1A9571F48A01F5
:100F78009B0145FA46F4015010402040304020952E
:100F88003095109500955F910895881F991F001C52
:100F9800001F8A1B9B0B0E0A0F0B30F48A0F9B1F36
:100FA8000E1E0F1F8894DDCF0894DBCFF894113004
:100FB80029F4009127011091280104C0009129010A
:100FC80010912A0147FC78940895F89400912B0118
:100FD8001981112339F40E7F0CC00160188111307A
:100FE80009F012E01A95F0917C00F87F1F2B1093FE
:100FF8007C0000932B0147FC789408951895DB0A30
:08100800F27A2B79F91AFB7B47
:100000000C94B1030C9402080C9402080C9402089E
:100010000C9402080C9402080C9402080C94020838
:100020000C9402080C9402080C9402080C94020828
:100030000C9402080C9402080C9402080C94020818
:100040000C9418040C9402080C9405050C94D30429
:100050000C9402080C9402080C9402080C940208F8
:080060000C9402080C94020844
:00000001FF
